:020000040000FA
:100000000C9459000C9481000C9481000C94810094
:100010000C9481000C9481000C9481000C9481005C
:100020000C9481000C9481000C9481000C9481004C
:100030000C9481000C9481000C9481000C9481003C
:100040000C9456030C9481000C94C6030C94A003EA
:100050000C9481000C9481000C9481000C9481001C
:100060000C94F8030C948100000000002500280087
:100070002B00040404040404040402020202020229
:10008000030303030303010204081020408001025C
:1000900004081020010204081020000000080002DB
:1000A0000100000304070000000000000000170525
:1000B000880611241FBECFEFD8E0DEBFCDBF22E0FF
:1000C000A0E4B1E001C01D92A739B207E1F711E049
:1000D000A0E0B1E0EAE9F1E102C005900D92A034A0
:1000E000B107D9F710E0C8E5D0E004C02197FE01C0
:1000F0000E94C806C735D107C9F70E949D050C9418
:10010000C0080C94000090E0FC01E656FF4F2491DB
:10011000FC01EA57FF4F3491FC01EE58FF4FE49188
:10012000EE23C9F0222339F0233001F1A8F4213065
:1001300019F1223029F1F0E0EE0FFF1FE859FF4FCF
:10014000A591B4918FB7F894EC91611126C03095C8
:100150003E233C938FBF08952730A9F02830C9F083
:10016000243049F7809180008F7D03C0809180000A
:100170008F7780938000DFCF84B58F7784BDDBCF0E
:1001800084B58F7DFBCF8091B0008F778093B000D6
:10019000D2CF8091B0008F7DF9CF3E2BDACF08957A
:1001A000CF93DF93AC01E091D801F091D901309762
:1001B000F1F09091D7018091D6019817C0F090E0AE
:1001C000292F30E02617370754F4D901A05CBE4F21
:1001D000240F351FE90128812C939F5FF1CF1092E6
:1001E000D7016093D601CB01DF91CF910994DF91C4
:1001F000CF910895AF92BF92CF92DF92EF92FF928C
:100200000F931F93CF93DF936C017B018B01040F3E
:10021000151FEB015E01AE18BF08C017D10759F0DA
:100220006991D601ED91FC910190F081E02DC6011C
:100230000995892B79F7C501DF91CF911F910F9116
:10024000FF90EF90DF90CF90BF90AF900895FC01AA
:10025000538D448D252F30E0842F90E0821B930B2B
:10026000541710F0CF96089501970895FC01918DD1
:10027000828D981761F0A28DAE0FBF2FB11D5D96D4
:100280008C91928D9F5F9F73928F90E008958FEF76
:100290009FEF0895FC01918D828D981731F0828D2A
:1002A000E80FF11D858D90E008958FEF9FEF089581
:1002B000FC01918D228D892F90E0805C9F4F821BE5
:1002C00091098F739927089584EE91E00E94580157
:1002D00021E0892B09F420E0822F089580E090E04E
:1002E000892B29F00E94640181110C94000008956B
:1002F000FC01A48DA80FB92FB11DA35ABF4F2C919B
:10030000848D90E001968F739927848FA689B78991
:100310002C93A089B1898C91837080648C93938D88
:10032000848D981306C00288F389E02D80818F7D2B
:1003300080830895EF92FF920F931F93CF93DF93E3
:10034000EC0181E0888F9B8D8C8D98131AC0E88911
:10035000F989808185FF15C09FB7F894EE89FF89E0
:100360006083E889F98980818370806480839FBF7E
:1003700081E090E0DF91CF911F910F91FF90EF907E
:100380000895F62E0B8D10E00F5F1F4F0F7311278E
:10039000E02E8C8D8E110CC00FB607FCFACFE889C9
:1003A000F989808185FFF5CFCE010E947801F1CFD8
:1003B000EB8DEC0FFD2FF11DE35AFF4FF0829FB73D
:1003C000F8940B8FEA89FB8980818062CFCFCF932D
:1003D000DF93EC01888D8823B9F0AA89BB89E8896D
:1003E000F9898C9185FD03C0808186FD0DC00FB613
:1003F00007FCF7CF8C9185FFF2CF808185FFEDCF91
:10040000CE010E947801E9CFDF91CF91089520912C
:100410008601260F3327331F21323105ECF420915A
:10042000AA01FC0190E080E0243069F082E00895A8
:10043000A09186012191AC014A595E4FA40FB52FBE
:10044000B11D2C930196861798F380918601680F51
:100450006093860180E0089581E008951092AA01DA
:1004600081E08093AC011092AB0161E082E10E94D7
:10047000830061E083E10E948300E9EBF0E080818A
:100480008E7F808380818D7F808388E48093B80015
:1004900085E48093BC0008950895E091D701809190
:1004A000D601E81730F4F0E0E05CFE4F808190E088
:1004B00008958FEF9FEF08959091D7018091D60115
:1004C0002FEF3FEF981748F4E92FF0E0E05CFE4F84
:1004D000208130E09F5F9093D701C90108958091FA
:1004E000D6019091D701891B990B0895CF93DF9383
:1004F000CB01EA01642F0E940702CE01DF91CF9168
:100500000895CF93DF931F92CDB7DEB7698361E083
:10051000CE0101960E94070281E090E00F90DF91EA
:10052000CF91089590E080E00895CF93DF93EC01A0
:1005300080918D0290918E02009759F020918F0248
:10054000309190022C173D0720F081E0DF91CF9190
:100550000895BE016F5F7F4F0E94F307009789F0F7
:1005600090938E0280938D02D0939002C0938F025D
:100570002091910230919202232B39F7FC011082D5
:10058000E4CF80E0E3CF0F931F93CF93DF9300D0AE
:10059000CDB7DEB79091D6018091D701981729F198
:1005A00081E892E00E945C0289831A8200919102A4
:1005B000109192020F5F1F4FC8010E94950288237D
:1005C00049F320918D0230918E0280919102909199
:1005D0009202BE016F5F7F4F820F931F0E94B90886
:1005E0001093920200939102D5CF81E08093DA01BB
:1005F0000F900F90DF91CF911F910F910895CF939E
:10060000DF9385ED8093BC0080916201909163013E
:10061000A0916401B09165010796A11DB11D23E071
:10062000B695A795979587952A95D1F72091BC0007
:1006300024FD03C01092AA0136C04091620150917E
:1006400063016091640170916501452B462B472B36
:1006500069F30097A105B10541F02AE22A95F1F767
:1006600000C00197A109B109E1CF8091610191E03A
:10067000909360018823B9F0C091B800D091BA007E
:100680008091BC008A7B8093BC0060E082E10E9484
:10069000830060E083E10E9483000E942E02D093D9
:1006A000BA00C093B800DF91CF9108951F920F92C6
:1006B0000FB60F9211242F933F938F939F93AF9375
:1006C000BF938091E0019091E101A091E201B0918E
:1006D000E3013091DF0123E0230F2D3758F5019618
:1006E000A11DB11D2093DF018093E0019093E101F2
:1006F000A093E201B093E3018091DB019091DC01D2
:10070000A091DD01B091DE010196A11DB11D809384
:10071000DB019093DC01A093DD01B093DE01BF917A
:10072000AF919F918F913F912F910F900FBE0F909E
:100730001F90189526E8230F0296A11DB11DD2CF58
:100740001F920F920FB60F9211242F933F934F9346
:100750005F936F937F938F939F93AF93BF93EF9329
:10076000FF9384EE91E00E947801FF91EF91BF9199
:10077000AF919F918F917F916F915F914F913F9139
:100780002F910F900FBE0F901F9018951F920F92F0
:100790000FB60F9211242F938F939F93EF93FF9394
:1007A000E091F401F091F5018081E091FA01F0917E
:1007B000FB0182FD1BC090818091FD018F5F8F73D3
:1007C0002091FE01821741F0E091FD01F0E0EC5133
:1007D000FE4F958F8093FD01FF91EF919F918F9137
:1007E0002F910F900FBE0F901F9018958081F4CF1E
:1007F0001F920F920FB60F9211242F933F934F9396
:100800005F936F937F938F939F93AF93BF93EF9378
:10081000FF938091B900887F803609F44AC0F0F5D3
:10082000883209F4A7C018F5803109F49BC0B8F4E8
:10083000882309F4F9C0883009F494C0FF91EF913E
:10084000BF91AF919F918F917F916F915F914F91E8
:100850003F912F910F900FBE0F901F9018958831E8
:1008600009F488C0803251F78093A90114C0803404
:1008700009F49DC040F48033B9F38833F9F68093CE
:10088000A90185ECB0C0803509F485C0883509F42C
:1008900096C0883499F60E94FF02D0CF883909F4B7
:1008A0008CC038F5883729F050F4883611F080373D
:1008B00029F683E08093AA011092A80157C08838D6
:1008C00009F47BC0803919F0803809F0B7CF8091E6
:1008D000A801803208F071C0E091A80181E08E0F7C
:1008E0008093A8018091BB00F0E0E857FE4F808321
:1008F0003DC0803B39F0E0F4803A09F479C0883A91
:1009000009F09CCF84E08093AA0110928701109295
:100910008601E091D201F091D30109958091860181
:1009200081110FC081E0809386011092660109C099
:10093000803C09F4A6CF883C09F4A3CF883B09F09A
:100940007DCFE091870181E08E0F80938701F0E0F9
:10095000EA59FE4F80818093BB009091870180917E
:10096000860129C08091CF018093BB0085EC8093E4
:10097000BC0064CF9091CE018091CD01981758F5BD
:10098000E091CE0181E08E0F8093CE01F0E0E3553F
:10099000FE4F8081E9CFE091CE0181E08E0F809300
:1009A000CE018091BB00F0E0E355FE4F8083909133
:1009B000CE018091CD019817C8F285E8D8CFE0919B
:1009C000CE0181E08E0F8093CE018091BB00F0E0DC
:1009D000E355FE4F80838091AC0181115CCF81E0B3
:1009E0008093AB0184EA8093BC001092AA0126CFC9
:1009F00085EC8093BC001092AA018091A8018032FE
:100A000030F4E091A801F0E0E857FE4F10826091C9
:100A1000A80170E0E091D001F091D10188E891E067
:100A200009951092A8010ACF1092A90134CF109213
:100A3000E7011092E60188EE93E0A0E0B0E0809339
:100A4000E8019093E901A093EA01B093EB012AE059
:100A500031E03093E5012093E40125EC30E0309360
:100A6000F1012093F00124EC30E03093F301209366
:100A7000F20120EC30E03093F5012093F40121ECF9
:100A800030E03093F7012093F60122EC30E0309310
:100A9000F9012093F80126EC30E03093FB0120931C
:100AA000FA011092FD011092FE011092FF011092C6
:100AB0000002109284021092830280938502909328
:100AC0008602A0938702B09388028CE191E0909314
:100AD00082028093810210928E0210928D021092F7
:100AE000900210928F02109292021092910290E066
:100AF00080E00E94950220918D0230918E0281113A
:100B000013C02115310519F0C9010E946A0710921E
:100B10008E0210928D021092920210929102109207
:100B2000900210928F0208951092920210929102F8
:100B30006FE371E0C9010C94B908789484B58260C0
:100B400084BD84B5816084BD85B5826085BD85B571
:100B5000816085BD80916E00816080936E001092EF
:100B6000810080918100826080938100809181006A
:100B700081608093810080918000816080938000FB
:100B80008091B10084608093B1008091B000816059
:100B90008093B00080917A00846080937A00809185
:100BA0007A00826080937A0080917A0081608093DD
:100BB0007A0080917A00806880937A001092C10058
:100BC0001092D7011092D6011092D5011092D40143
:100BD0000E942E028FEC90E09093D3018093D2017B
:100BE00080ED90E09093D1018093D00180E18093DB
:100BF000BA0023EC32E03093D9012093D801E09180
:100C0000F401F091F50192E09083E091F001F09110
:100C1000F1011082E091F201F091F30180831092D2
:100C2000FC01E091F801F091F90186E08083E09108
:100C3000F601F091F701808180618083E091F601F7
:100C4000F091F701808188608083E091F601F09156
:100C5000F701808180688083E091F601F091F701CF
:100C600080818F7D8083C0E0D0E08091DA0188238D
:100C7000D1F142E150E06AE271E084EE91E00E943D
:100C8000FA00409191025091920260918D02709110
:100C90008E0284EE91E00E94FA0042E050E06DE3A3
:100CA00071E084EE91E00E94FA0090E080E00E9402
:100CB000950220918D0230918E0281111FC0211565
:100CC000310519F0C9010E946A0710928E02109234
:100CD0008D02109292021092910210929002109244
:100CE0008F021092DA01209709F4BFCF0E946401AD
:100CF000882309F4BACF0E940000B7CF1092920265
:100D0000109291026FE371E0C9010E94B908E9CF26
:100D100080918D0290918E02009711F00C946A07D9
:100D200008952F923F924F925F926F927F928F928F
:100D30009F92AF92BF92CF92DF92EF92FF920F936A
:100D40001F93CF93DF93CDB7DEB7CA1BDB0B0FB674
:100D5000F894DEBF0FBECDBF09942A883988488831
:100D60005F846E847D848C849B84AA84B984C884C7
:100D7000DF80EE80FD800C811B81AA81B981CE0FBE
:100D8000D11D0FB6F894DEBF0FBECDBFED010895A3
:100D9000EE0FFF1F0590F491E02D09940F931F9320
:100DA000CF93DF938230910510F482E090E0E091E0
:100DB0009502F091960230E020E0B0E0A0E030979C
:100DC00099F42115310509F44AC0281B390B243048
:100DD0003105D8F58A819B816115710589F1FB0187
:100DE00093838283FE0111C040815181028113816E
:100DF00048175907E0F04817590799F4109761F020
:100E000012960C93129713961C933296CF01DF9192
:100E1000CF911F910F910895009395021093960220
:100E2000F4CF2115310551F04217530738F0A901CD
:100E3000DB019A01BD01DF01F801C1CFEF01F9CF5C
:100E40009093960280939502CDCFFE01E20FF31F9F
:100E5000819391932250310939832883D7CF2091F0
:100E6000930230919402232B41F42091020130919E
:100E7000030130939402209393022091000130915A
:100E800001012115310541F42DB73EB74091040110
:100E900050910501241B350BE0919302F0919402CF
:100EA000E217F307A0F42E1B3F0B2817390778F041
:100EB000AC014E5F5F4F2417350748F04E0F5F1FA0
:100EC0005093940240939302819391939FCFF0E0CB
:100ED000E0E09CCFCF93DF930097E9F0FC013297DD
:100EE00013821282A0919502B0919602ED0130E03A
:100EF00020E01097A1F420813181820F931F20916F
:100F00009302309194022817390709F061C0F093D9
:100F10009402E0939302DF91CF910895EA01CE17F6
:100F2000DF07E8F54A815B819E0141155105B1F764
:100F3000E901FB83EA8349915991C40FD51FEC174E
:100F4000FD0761F4808191810296840F951FE9016C
:100F500099838883828193819B838A83F0E0E0E098
:100F600012968D919C9113970097B9F52D913C9114
:100F70001197CD010296820F931F20919302309119
:100F800094022817390739F6309751F510929602D6
:100F900010929502B0939402A0939302BCCFD38396
:100FA000C28340815181840F951FC817D90761F40E
:100FB0004E5F5F4F88819981480F591F518340834D
:100FC0008A819B81938382832115310509F0B0CFFB
:100FD000F0939602E09395029ECFFD01DC01C0CF15
:100FE00013821282D7CFB0E0A0E0E9EFF7E00C94D3
:100FF00093068C01009751F4CB010E94CE068C0120
:10100000C801CDB7DEB7E0E10C94AF06FC01E60FF6
:10101000F71F9C0122503109E217F30708F49DC025
:10102000D901CD91DC911197C617D70798F0C5303B
:10103000D10530F3CE0104978617970708F3C61B36
:10104000D70B2297C193D1936D937C93CF010E94CC
:101050006A07D6CF5B01AC1ABD0A4C018C0E9D1EEF
:10106000A0919502B0919602512C412CF12CE12CCB
:10107000109731F58091930290919402881599050B
:1010800009F05CC04616570608F058C08091000170
:1010900090910101009741F48DB79EB740910401F2
:1010A00050910501841B950BE817F90708F055C00E
:1010B000F0939402E0939302F90171836083A0CFCF
:1010C0008D919C91119712966C90129713967C902B
:1010D0001397A815B90559F56C0142E0C40ED11C4F
:1010E000CA14DB0420F1AC014A195B09DA0112963B
:1010F000159780F06282738251834083D9016D938A
:101100007C93E114F10471F0D7011396FC93EE93F4
:10111000129776CF22968C0F9D1FF90191838083C1
:10112000F301EFCFF0939602E093950269CF481652
:10113000590608F42C017D01D3019ACFCB010E94FE
:10114000CE067C01009749F0AE01B8010E94B008BC
:10115000C8010E946A07870153CF10E000E050CF1A
:10116000FB01DC0102C001900D9241505040D8F7C4
:101170000895FB01DC0101900D920020E1F7089534
:1011800010E0C8E5D0E004C0FE010E94C806219628
:10119000C935D107C9F7F894FFCF00009702800046
:1011A000000000009A01FA002701E701580136010A
:1011B0004A01000000008102760292024C026F0296
:1011C0005C024D02526563696269646F20706F72E0
:0A11D000204932433A20000D0A00C6
:107E0000112484B714BE81FFF0D085E080938100F7
:107E100082E08093C00088E18093C10086E0809377
:107E2000C20080E18093C4008EE0C9D0259A86E02C
:107E300020E33CEF91E0309385002093840096BBD3
:107E4000B09BFECF1D9AA8958150A9F7CC24DD24C4
:107E500088248394B5E0AB2EA1E19A2EF3E0BF2EE7
:107E6000A2D0813461F49FD0082FAFD0023811F036
:107E7000013811F484E001C083E08DD089C08234E0
:107E800011F484E103C0853419F485E0A6D080C0E4
:107E9000853579F488D0E82EFF2485D0082F10E0AE
:107EA000102F00270E291F29000F111F8ED06801E7
:107EB0006FC0863521F484E090D080E0DECF843638
:107EC00009F040C070D06FD0082F6DD080E0C81688
:107ED00080E7D80618F4F601B7BEE895C0E0D1E017
:107EE00062D089930C17E1F7F0E0CF16F0E7DF06D8
:107EF00018F0F601B7BEE89568D007B600FCFDCFD4
:107F0000A601A0E0B1E02C9130E011968C91119780
:107F100090E0982F8827822B932B1296FA010C0160
:107F200087BEE89511244E5F5F4FF1E0A038BF0790
:107F300051F7F601A7BEE89507B600FCFDCF97BE46
:107F4000E89526C08437B1F42ED02DD0F82E2BD052
:107F50003CD0F601EF2C8F010F5F1F4F84911BD097
:107F6000EA94F801C1F70894C11CD11CFA94CF0C13
:107F7000D11C0EC0853739F428D08EE10CD085E9AC
:107F80000AD08FE07ACF813511F488E018D01DD067
:107F900080E101D065CF982F8091C00085FFFCCF94
:107FA0009093C60008958091C00087FFFCCF809118
:107FB000C00084FD01C0A8958091C6000895E0E648
:107FC000F0E098E1908380830895EDDF803219F02E
:107FD00088E0F5DFFFCF84E1DECF1F93182FE3DFCA
:107FE0001150E9F7F2DF1F91089580E0E8DFEE27F6
:047FF000FF270994CA
:027FFE00040479
:00000001FF
