:020000040000FA
:100000000C9458000C9480000C9480000C94800098
:100010000C9480000C9480000C9480000C94800060
:100020000C9480000C9480000C9480000C94800050
:100030000C9480000C9480000C9480000C94800040
:100040000C943E030C9480000C94AE030C94880333
:100050000C9480000C9480000C9480000C94800020
:100060000C94E0030C9480000000000025002800A0
:100070002B00040404040404040402020202020229
:10008000030303030303010204081020408001025C
:1000900004081020010204081020000000080002DB
:1000A0000100000304070000000000000000FF043E
:1000B00011241FBECFEFD8E0DEBFCDBF11E0A0E01E
:1000C000B1E0E6EEFBE002C005900D92A835B10765
:1000D000D9F722E0A8E5B1E001C01D92A63CB20725
:1000E000E1F710E0C8E5D0E004C02197FE010E94CE
:1000F000EB05C735D107C9F70E9438050C94F10507
:100100000C94000090E0FC01E656FF4F2491FC01A6
:10011000EA57FF4F3491FC01EE58FF4FE491EE2374
:10012000C9F0222339F0233001F1A8F4213019F16C
:10013000223029F1F0E0EE0FFF1FE859FF4FA591A3
:10014000B4918FB7F894EC91611126C030953E239D
:100150003C938FBF08952730A9F02830C9F0243090
:1001600049F7809180008F7D03C0809180008F7758
:1001700080938000DFCF84B58F7784BDDBCF84B5DB
:100180008F7DFBCF8091B0008F778093B000D2CF6E
:100190008091B0008F7DF9CF3E2BDACFE091120233
:1001A000F0911302309729F010920D0210920C0278
:1001B00009940895CF93DF93AC01E0911002F09180
:1001C00011023097F1F090910F0280910E02981772
:1001D000C0F090E0292F30E02617370754F4D901FA
:1001E000A858BE4F240F351FE90128812C939F5F2B
:1001F000F1CF10920F0260930E02CB01DF91CF91ED
:100200000994DF91CF910895AF92BF92CF92DF9280
:10021000EF92FF920F931F93CF93DF936C017B01BB
:100220008B01040F151FEB015E01AE18BF08C0174C
:10023000D10759F06991D601ED91FC910190F081BF
:10024000E02DC6010995892B79F7C501DF91CF9182
:100250001F910F91FF90EF90DF90CF90BF90AF90E4
:100260000895FC01538D448D252F30E0842F90E0BC
:10027000821B930B541710F0CF96089501970895A1
:10028000FC01918D828D981761F0A28DAE0FBF2F6A
:10029000B11D5D968C91928D9F5F9F73928F90E0C0
:1002A00008958FEF9FEF0895FC01918D828D98172F
:1002B00031F0828DE80FF11D858D90E008958FEF6C
:1002C0009FEF0895FC01918D228D892F90E0805C35
:1002D0009F4F821B91098F73992708958DE192E0BA
:1002E0000E94620121E0892B09F420E0822F089509
:1002F00080E090E0892B29F00E946E0181110C941E
:1003000000000895FC01A48DA80FB92FB11DA35AB8
:10031000BF4F2C91848D90E001968F739927848F25
:10032000A689B7892C93A089B1898C918370806448
:100330008C93938D848D981306C00288F389E02DE9
:1003400080818F7D80830895EF92FF920F931F939A
:10035000CF93DF93EC0181E0888F9B8D8C8D981378
:100360001AC0E889F989808185FF15C09FB7F89484
:10037000EE89FF896083E889F989808183708064D0
:1003800080839FBF81E090E0DF91CF911F910F911B
:10039000FF90EF900895F62E0B8D10E00F5F1F4F2A
:1003A0000F731127E02E8C8D8E110CC00FB607FC39
:1003B000FACFE889F989808185FFF5CFCE010E94C7
:1003C0008201F1CFEB8DEC0FFD2FF11DE35AFF4FB2
:1003D000F0829FB7F8940B8FEA89FB898081806255
:1003E000CFCFCF93DF93EC01888D8823B9F0AA8912
:1003F000BB89E889F9898C9185FD03C0808186FDE0
:100400000DC00FB607FCF7CF8C9185FFF2CF80812E
:1004100085FFEDCFCE010E948201E9CFDF91CF9120
:1004200008952091BE01260F3327331F2132310555
:10043000ECF42091E201FC0190E080E0243069F0CE
:1004400082E00895A091BE012191AC0142565E4F19
:10045000A40FB52FB11D2C930196861798F38091A8
:10046000BE01680F6093BE0180E0089581E00895A9
:100470001092E20181E08093E4011092E30161E0D7
:1004800082E10E94820061E083E10E948200E9EB48
:10049000F0E080818E7F808380818D7F808388E4FF
:1004A0008093B80085E48093BC0008950895E0919E
:1004B0000F0280910E02E81730F4F0E0E858FE4F8A
:1004C000808190E008958FEF9FEF089590910F0243
:1004D00080910E022FEF3FEF981748F4E92FF0E0DC
:1004E000E858FE4F208130E09F5F90930F02C901D2
:1004F000089580910E0290910F02891B990B089527
:10050000CF93DF93CB01EA01642F0E941102CE0149
:10051000DF91CF910895CF93DF931F92CDB7DEB7D0
:10052000698361E0CE0101960E94110281E090E0B2
:100530000F90DF91CF91089590E080E00895FB0146
:1005400001900020E9F73197AF01461B570BDC0102
:10055000ED91FC910280F381E02D099464E271E059
:100560008AEB92E00C949F020F931F93CF93DF933B
:1005700008E511E0D0E0C0E090910E0280910F02FA
:10058000981761F0CF31D10549F08AEB92E00E94D3
:1005900066022196F80181938F01EECFC85ADE4F93
:1005A000188269E371E08DE192E00E949F0268E5A4
:1005B00071E08DE192E00E949F0266E471E08DE1BE
:1005C00092E0DF91CF911F910F910C949F02CF93F6
:1005D000DF9385ED8093BC0080919A0190919B01FF
:1005E000A0919C01B0919D010796A11DB11D23E032
:1005F000B695A795979587952A95D1F72091BC0038
:1006000024FD03C01092E20136C040919A0150913E
:100610009B0160919C0170919D01452B462B472BBE
:1006200069F30097A105B10541F02AE22A95F1F797
:1006300000C00197A109B109E1CF8091990191E032
:10064000909398018823B9F0C091B800D091BA0076
:100650008091BC008A7B8093BC0060E082E10E94B4
:10066000820060E083E10E9482000E943802D09301
:10067000BA00C093B800DF91CF9108951F920F92F6
:100680000FB60F9211242F933F938F939F93AF93A5
:10069000BF938091190290911A02A0911B02B09110
:1006A0001C023091180223E0230F2D3758F50196D4
:1006B000A11DB11D209318028093190290931A0274
:1006C000A0931B02B0931C0280911402909115021A
:1006D000A0911602B09117020196A11DB11D809341
:1006E000140290931502A0931602B0931702BF91C3
:1006F000AF919F918F913F912F910F900FBE0F90CF
:100700001F90189526E8230F0296A11DB11DD2CF88
:100710001F920F920FB60F9211242F933F934F9376
:100720005F936F937F938F939F93AF93BF93EF9359
:10073000FF938DE192E00E948201FF91EF91BF91C2
:10074000AF919F918F917F916F915F914F913F9169
:100750002F910F900FBE0F901F9018951F920F9220
:100760000FB60F9211242F938F939F93EF93FF93C4
:10077000E0912D02F0912E028081E0913302F09100
:10078000340282FD1BC09081809136028F5F8F738F
:1007900020913702821741F0E0913602F0E0E35EEB
:1007A000FD4F958F80933602FF91EF919F918F912E
:1007B0002F910F900FBE0F901F9018958081F4CF4E
:1007C0001F920F920FB60F9211242F933F934F93C6
:1007D0005F936F937F938F939F93AF93BF93EF93A9
:1007E000FF938091B900887F803609F44AC0F0F504
:1007F000883209F4A7C018F5803109F49BC0B8F419
:10080000882309F4F9C0883009F494C0FF91EF916E
:10081000BF91AF919F918F917F916F915F914F9118
:100820003F912F910F900FBE0F901F901895883118
:1008300009F488C0803251F78093E10114C08034FC
:1008400009F49DC040F48033B9F38833F9F68093FE
:10085000E10185ECB0C0803509F485C0883509F424
:1008600096C0883499F60E94E702D0CF883909F4FF
:100870008CC038F5883729F050F4883611F080376D
:1008800029F683E08093E2011092E00157C0883896
:1008900009F47BC0803919F0803809F0B7CF809116
:1008A000E001803208F071C0E091E00181E08E0F3C
:1008B0008093E0018091BB00F0E0E054FE4F808324
:1008C0003DC0803B39F0E0F4803A09F479C0883AC1
:1008D00009F09CCF84E08093E2011092BF01109256
:1008E000BE01E0910A02F0910B0209958091BE01D0
:1008F00081110FC081E08093BE0110929E0109C05A
:10090000803C09F4A6CF883C09F4A3CF883B09F0CA
:100910007DCFE091BF0181E08E0F8093BF01F0E0B9
:10092000E256FE4F80818093BB009091BF01809181
:10093000BE0129C0809107028093BB0085EC8093A3
:10094000BC0064CF9091060280910502981758F57B
:10095000E091060281E08E0F80930602F0E0EB51F9
:10096000FE4F8081E9CFE091060281E08E0F8093F7
:1009700006028091BB00F0E0EB51FE4F8083909126
:100980000602809105029817C8F285E8D8CFE09159
:10099000060281E08E0F809306028091BB00F0E09A
:1009A000EB51FE4F80838091E40181115CCF81E0A7
:1009B0008093E30184EA8093BC001092E20126CF89
:1009C00085EC8093BC001092E2018091E0018032BE
:1009D00030F4E091E001F0E0E054FE4F10826091CD
:1009E000E00170E0E0910802F091090280EC91E0F2
:1009F00009951092E0010ACF1092E10134CFEDE1A8
:100A0000F2E01382128288EE93E0A0E0B0E08483EB
:100A10009583A683B78324E031E03183208325ECDE
:100A200030E03587248724EC30E03787268720ECB8
:100A300030E0318B208B21EC30E0338B228B22ECA9
:100A400030E0358B248B26EC30E0378B268B118EF3
:100A5000128E138E148EEAEBF2E0138212828483DC
:100A60009583A683B78386E191E09183808308957F
:100A7000789484B5826084BD84B5816084BD85B579
:100A8000826085BD85B5816085BD80916E00816085
:100A900080936E001092810080918100826080932B
:100AA000810080918100816080938100809180002D
:100AB0008160809380008091B10084608093B10058
:100AC0008091B00081608093B00080917A00846052
:100AD00080937A0080917A00826080937A0080917E
:100AE0007A00816080937A0080917A008068809398
:100AF0007A001092C10010920F0210920E02109212
:100B00000D0210920C020E9438028EEC90E090933D
:100B10000B0280930A028AED90E090930902809381
:100B2000080280E18093BA0024EB32E03093110296
:100B3000209310022EEA32E0309313022093120227
:100B4000E0912D02F0912E0292E09083E091290233
:100B5000F0912A021082E0912B02F0912C02808306
:100B600010923502E0913102F091320286E08083EA
:100B7000E0912F02F0913002808180618083E091CA
:100B80002F02F0913002808188608083E0912F02F3
:100B9000F0913002808180688083E0912F02F09193
:100BA000300280818F7D808369E471E08DE192E085
:100BB0000E949F0266E471E08DE192E00E949F0234
:100BC000C0E0D0E02097F1F30E946E018823D1F3BA
:100BD0000E940000F7CFEE0FFF1F0590F491E02D6B
:100BE0000994F894FFCF00000000A4010401310132
:100BF000F101620140015401000000008B028002FB
:100C00009C025602790266025702486F6C612045C9
:100C1000535033322C20726563696269646F0045FA
:100C20005350333220646963653A20000D0A004155
:0E0C3000726475696E6F206C6973746F0000DA
:107E0000112484B714BE81FFF0D085E080938100F7
:107E100082E08093C00088E18093C10086E0809377
:107E2000C20080E18093C4008EE0C9D0259A86E02C
:107E300020E33CEF91E0309385002093840096BBD3
:107E4000B09BFECF1D9AA8958150A9F7CC24DD24C4
:107E500088248394B5E0AB2EA1E19A2EF3E0BF2EE7
:107E6000A2D0813461F49FD0082FAFD0023811F036
:107E7000013811F484E001C083E08DD089C08234E0
:107E800011F484E103C0853419F485E0A6D080C0E4
:107E9000853579F488D0E82EFF2485D0082F10E0AE
:107EA000102F00270E291F29000F111F8ED06801E7
:107EB0006FC0863521F484E090D080E0DECF843638
:107EC00009F040C070D06FD0082F6DD080E0C81688
:107ED00080E7D80618F4F601B7BEE895C0E0D1E017
:107EE00062D089930C17E1F7F0E0CF16F0E7DF06D8
:107EF00018F0F601B7BEE89568D007B600FCFDCFD4
:107F0000A601A0E0B1E02C9130E011968C91119780
:107F100090E0982F8827822B932B1296FA010C0160
:107F200087BEE89511244E5F5F4FF1E0A038BF0790
:107F300051F7F601A7BEE89507B600FCFDCF97BE46
:107F4000E89526C08437B1F42ED02DD0F82E2BD052
:107F50003CD0F601EF2C8F010F5F1F4F84911BD097
:107F6000EA94F801C1F70894C11CD11CFA94CF0C13
:107F7000D11C0EC0853739F428D08EE10CD085E9AC
:107F80000AD08FE07ACF813511F488E018D01DD067
:107F900080E101D065CF982F8091C00085FFFCCF94
:107FA0009093C60008958091C00087FFFCCF809118
:107FB000C00084FD01C0A8958091C6000895E0E648
:107FC000F0E098E1908380830895EDDF803219F02E
:107FD00088E0F5DFFFCF84E1DECF1F93182FE3DFCA
:107FE0001150E9F7F2DF1F91089580E0E8DFEE27F6
:047FF000FF270994CA
:027FFE00040479
:00000001FF
